{
  "_format": "hh-sol-artifact-1",
  "contractName": "NFTMarket",
  "sourceName": "contracts/NFTMarket.sol",
  "abi": [
    {
      "inputs": [],
      "stateMutability": "nonpayable",
      "type": "constructor"
    },
    {
      "anonymous": false,
      "inputs": [
        {
          "indexed": true,
          "internalType": "address",
          "name": "owner",
          "type": "address"
        },
        {
          "indexed": true,
          "internalType": "address",
          "name": "approved",
          "type": "address"
        },
        {
          "indexed": true,
          "internalType": "uint256",
          "name": "tokenId",
          "type": "uint256"
        }
      ],
      "name": "Approval",
      "type": "event"
    },
    {
      "anonymous": false,
      "inputs": [
        {
          "indexed": true,
          "internalType": "address",
          "name": "owner",
          "type": "address"
        },
        {
          "indexed": true,
          "internalType": "address",
          "name": "operator",
          "type": "address"
        },
        {
          "indexed": false,
          "internalType": "bool",
          "name": "approved",
          "type": "bool"
        }
      ],
      "name": "ApprovalForAll",
      "type": "event"
    },
    {
      "anonymous": false,
      "inputs": [
        {
          "indexed": false,
          "internalType": "uint256",
          "name": "tokenID",
          "type": "uint256"
        },
        {
          "indexed": false,
          "internalType": "address",
          "name": "from",
          "type": "address"
        },
        {
          "indexed": false,
          "internalType": "address",
          "name": "to",
          "type": "address"
        },
        {
          "indexed": false,
          "internalType": "string",
          "name": "tokenURI",
          "type": "string"
        },
        {
          "indexed": false,
          "internalType": "uint256",
          "name": "price",
          "type": "uint256"
        }
      ],
      "name": "NFTTransfer",
      "type": "event"
    },
    {
      "anonymous": false,
      "inputs": [
        {
          "indexed": true,
          "internalType": "address",
          "name": "previousOwner",
          "type": "address"
        },
        {
          "indexed": true,
          "internalType": "address",
          "name": "newOwner",
          "type": "address"
        }
      ],
      "name": "OwnershipTransferred",
      "type": "event"
    },
    {
      "anonymous": false,
      "inputs": [
        {
          "indexed": true,
          "internalType": "address",
          "name": "from",
          "type": "address"
        },
        {
          "indexed": true,
          "internalType": "address",
          "name": "to",
          "type": "address"
        },
        {
          "indexed": true,
          "internalType": "uint256",
          "name": "tokenId",
          "type": "uint256"
        }
      ],
      "name": "Transfer",
      "type": "event"
    },
    {
      "inputs": [
        {
          "internalType": "address",
          "name": "to",
          "type": "address"
        },
        {
          "internalType": "uint256",
          "name": "tokenId",
          "type": "uint256"
        }
      ],
      "name": "approve",
      "outputs": [],
      "stateMutability": "nonpayable",
      "type": "function"
    },
    {
      "inputs": [
        {
          "internalType": "address",
          "name": "owner",
          "type": "address"
        }
      ],
      "name": "balanceOf",
      "outputs": [
        {
          "internalType": "uint256",
          "name": "",
          "type": "uint256"
        }
      ],
      "stateMutability": "view",
      "type": "function"
    },
    {
      "inputs": [
        {
          "internalType": "uint256",
          "name": "tokenID",
          "type": "uint256"
        }
      ],
      "name": "buyNFT",
      "outputs": [],
      "stateMutability": "payable",
      "type": "function"
    },
    {
      "inputs": [
        {
          "internalType": "uint256",
          "name": "tokenID",
          "type": "uint256"
        }
      ],
      "name": "cancelListing",
      "outputs": [],
      "stateMutability": "nonpayable",
      "type": "function"
    },
    {
      "inputs": [
        {
          "internalType": "string",
          "name": "tokenURI",
          "type": "string"
        }
      ],
      "name": "createNFT",
      "outputs": [],
      "stateMutability": "nonpayable",
      "type": "function"
    },
    {
      "inputs": [
        {
          "internalType": "uint256",
          "name": "tokenId",
          "type": "uint256"
        }
      ],
      "name": "getApproved",
      "outputs": [
        {
          "internalType": "address",
          "name": "",
          "type": "address"
        }
      ],
      "stateMutability": "view",
      "type": "function"
    },
    {
      "inputs": [
        {
          "internalType": "address",
          "name": "owner",
          "type": "address"
        },
        {
          "internalType": "address",
          "name": "operator",
          "type": "address"
        }
      ],
      "name": "isApprovedForAll",
      "outputs": [
        {
          "internalType": "bool",
          "name": "",
          "type": "bool"
        }
      ],
      "stateMutability": "view",
      "type": "function"
    },
    {
      "inputs": [
        {
          "internalType": "uint256",
          "name": "tokenID",
          "type": "uint256"
        },
        {
          "internalType": "uint256",
          "name": "price",
          "type": "uint256"
        }
      ],
      "name": "listNFT",
      "outputs": [],
      "stateMutability": "nonpayable",
      "type": "function"
    },
    {
      "inputs": [],
      "name": "name",
      "outputs": [
        {
          "internalType": "string",
          "name": "",
          "type": "string"
        }
      ],
      "stateMutability": "view",
      "type": "function"
    },
    {
      "inputs": [],
      "name": "owner",
      "outputs": [
        {
          "internalType": "address",
          "name": "",
          "type": "address"
        }
      ],
      "stateMutability": "view",
      "type": "function"
    },
    {
      "inputs": [
        {
          "internalType": "uint256",
          "name": "tokenId",
          "type": "uint256"
        }
      ],
      "name": "ownerOf",
      "outputs": [
        {
          "internalType": "address",
          "name": "",
          "type": "address"
        }
      ],
      "stateMutability": "view",
      "type": "function"
    },
    {
      "inputs": [],
      "name": "renounceOwnership",
      "outputs": [],
      "stateMutability": "nonpayable",
      "type": "function"
    },
    {
      "inputs": [
        {
          "internalType": "address",
          "name": "from",
          "type": "address"
        },
        {
          "internalType": "address",
          "name": "to",
          "type": "address"
        },
        {
          "internalType": "uint256",
          "name": "tokenId",
          "type": "uint256"
        }
      ],
      "name": "safeTransferFrom",
      "outputs": [],
      "stateMutability": "nonpayable",
      "type": "function"
    },
    {
      "inputs": [
        {
          "internalType": "address",
          "name": "from",
          "type": "address"
        },
        {
          "internalType": "address",
          "name": "to",
          "type": "address"
        },
        {
          "internalType": "uint256",
          "name": "tokenId",
          "type": "uint256"
        },
        {
          "internalType": "bytes",
          "name": "data",
          "type": "bytes"
        }
      ],
      "name": "safeTransferFrom",
      "outputs": [],
      "stateMutability": "nonpayable",
      "type": "function"
    },
    {
      "inputs": [
        {
          "internalType": "address",
          "name": "operator",
          "type": "address"
        },
        {
          "internalType": "bool",
          "name": "approved",
          "type": "bool"
        }
      ],
      "name": "setApprovalForAll",
      "outputs": [],
      "stateMutability": "nonpayable",
      "type": "function"
    },
    {
      "inputs": [
        {
          "internalType": "bytes4",
          "name": "interfaceId",
          "type": "bytes4"
        }
      ],
      "name": "supportsInterface",
      "outputs": [
        {
          "internalType": "bool",
          "name": "",
          "type": "bool"
        }
      ],
      "stateMutability": "view",
      "type": "function"
    },
    {
      "inputs": [],
      "name": "symbol",
      "outputs": [
        {
          "internalType": "string",
          "name": "",
          "type": "string"
        }
      ],
      "stateMutability": "view",
      "type": "function"
    },
    {
      "inputs": [
        {
          "internalType": "uint256",
          "name": "tokenId",
          "type": "uint256"
        }
      ],
      "name": "tokenURI",
      "outputs": [
        {
          "internalType": "string",
          "name": "",
          "type": "string"
        }
      ],
      "stateMutability": "view",
      "type": "function"
    },
    {
      "inputs": [
        {
          "internalType": "address",
          "name": "from",
          "type": "address"
        },
        {
          "internalType": "address",
          "name": "to",
          "type": "address"
        },
        {
          "internalType": "uint256",
          "name": "tokenId",
          "type": "uint256"
        }
      ],
      "name": "transferFrom",
      "outputs": [],
      "stateMutability": "nonpayable",
      "type": "function"
    },
    {
      "inputs": [
        {
          "internalType": "address",
          "name": "newOwner",
          "type": "address"
        }
      ],
      "name": "transferOwnership",
      "outputs": [],
      "stateMutability": "nonpayable",
      "type": "function"
    },
    {
      "inputs": [],
      "name": "withdrawFunds",
      "outputs": [],
      "stateMutability": "nonpayable",
      "type": "function"
    }
  ],
  "bytecode": "0x60806040523480156200001157600080fd5b506040518060400160405280600b81526020017f4d636b75727a204e4654730000000000000000000000000000000000000000008152506040518060400160405280600681526020017f4d434b55525a000000000000000000000000000000000000000000000000000081525081600090816200008f919062000412565b508060019081620000a1919062000412565b505050620000c4620000b8620000ca60201b60201c565b620000d260201b60201c565b620004f9565b600033905090565b6000600760009054906101000a900473ffffffffffffffffffffffffffffffffffffffff16905081600760006101000a81548173ffffffffffffffffffffffffffffffffffffffff021916908373ffffffffffffffffffffffffffffffffffffffff1602179055508173ffffffffffffffffffffffffffffffffffffffff168173ffffffffffffffffffffffffffffffffffffffff167f8be0079c531659141344cd1fd0a4f28419497f9722a3daafe3b4186f6b6457e060405160405180910390a35050565b600081519050919050565b7f4e487b7100000000000000000000000000000000000000000000000000000000600052604160045260246000fd5b7f4e487b7100000000000000000000000000000000000000000000000000000000600052602260045260246000fd5b600060028204905060018216806200021a57607f821691505b60208210810362000230576200022f620001d2565b5b50919050565b60008190508160005260206000209050919050565b60006020601f8301049050919050565b600082821b905092915050565b6000600883026200029a7fffffffffffffffffffffffffffffffffffffffffffffffffffffffffffffffff826200025b565b620002a686836200025b565b95508019841693508086168417925050509392505050565b6000819050919050565b6000819050919050565b6000620002f3620002ed620002e784620002be565b620002c8565b620002be565b9050919050565b6000819050919050565b6200030f83620002d2565b620003276200031e82620002fa565b84845462000268565b825550505050565b600090565b6200033e6200032f565b6200034b81848462000304565b505050565b5b8181101562000373576200036760008262000334565b60018101905062000351565b5050565b601f821115620003c2576200038c8162000236565b62000397846200024b565b81016020851015620003a7578190505b620003bf620003b6856200024b565b83018262000350565b50505b505050565b600082821c905092915050565b6000620003e760001984600802620003c7565b1980831691505092915050565b6000620004028383620003d4565b9150826002028217905092915050565b6200041d8262000198565b67ffffffffffffffff811115620004395762000438620001a3565b5b62000445825462000201565b6200045282828562000377565b600060209050601f8311600181146200048a576000841562000475578287015190505b620004818582620003f4565b865550620004f1565b601f1984166200049a8662000236565b60005b82811015620004c4578489015182556001820191506020850194506020810190506200049d565b86831015620004e45784890151620004e0601f891682620003d4565b8355505b6001600288020188555050505b505050505050565b613b8180620005096000396000f3fe60806040526004361061012a5760003560e01c806370a08231116100ab578063a22cb4651161006f578063a22cb465146103bb578063b88d4fde146103e4578063c87b56dd1461040d578063da2ed03e1461044a578063e985e9c514610473578063f2fde38b146104b05761012a565b806370a08231146102e8578063715018a6146103255780638da5cb5b1461033c57806394383f141461036757806395d89b41146103905761012a565b806324600fc3116100f257806324600fc314610226578063305a67a81461023d57806342842e0e1461026657806351ed82881461028f5780636352211e146102ab5761012a565b806301ffc9a71461012f57806306fdde031461016c578063081812fc14610197578063095ea7b3146101d457806323b872dd146101fd575b600080fd5b34801561013b57600080fd5b50610156600480360381019061015191906124a7565b6104d9565b60405161016391906124ef565b60405180910390f35b34801561017857600080fd5b506101816105bb565b60405161018e919061259a565b60405180910390f35b3480156101a357600080fd5b506101be60048036038101906101b991906125f2565b61064d565b6040516101cb9190612660565b60405180910390f35b3480156101e057600080fd5b506101fb60048036038101906101f691906126a7565b610693565b005b34801561020957600080fd5b50610224600480360381019061021f91906126e7565b6107aa565b005b34801561023257600080fd5b5061023b61080a565b005b34801561024957600080fd5b50610264600480360381019061025f91906125f2565b6108ab565b005b34801561027257600080fd5b5061028d600480360381019061028891906126e7565b610aa0565b005b6102a960048036038101906102a491906125f2565b610ac0565b005b3480156102b757600080fd5b506102d260048036038101906102cd91906125f2565b610cfe565b6040516102df9190612660565b60405180910390f35b3480156102f457600080fd5b5061030f600480360381019061030a919061273a565b610d84565b60405161031c9190612776565b60405180910390f35b34801561033157600080fd5b5061033a610e3b565b005b34801561034857600080fd5b50610351610e4f565b60405161035e9190612660565b60405180910390f35b34801561037357600080fd5b5061038e60048036038101906103899190612791565b610e79565b005b34801561039c57600080fd5b506103a5610fa4565b6040516103b2919061259a565b60405180910390f35b3480156103c757600080fd5b506103e260048036038101906103dd91906127fd565b611036565b005b3480156103f057600080fd5b5061040b60048036038101906104069190612972565b61104c565b005b34801561041957600080fd5b50610434600480360381019061042f91906125f2565b6110ae565b604051610441919061259a565b60405180910390f35b34801561045657600080fd5b50610471600480360381019061046c9190612a55565b6111c0565b005b34801561047f57600080fd5b5061049a60048036038101906104959190612aa2565b611278565b6040516104a791906124ef565b60405180910390f35b3480156104bc57600080fd5b506104d760048036038101906104d2919061273a565b61130c565b005b60007f80ac58cd000000000000000000000000000000000000000000000000000000007bffffffffffffffffffffffffffffffffffffffffffffffffffffffff1916827bffffffffffffffffffffffffffffffffffffffffffffffffffffffff191614806105a457507f5b5e139f000000000000000000000000000000000000000000000000000000007bffffffffffffffffffffffffffffffffffffffffffffffffffffffff1916827bffffffffffffffffffffffffffffffffffffffffffffffffffffffff1916145b806105b457506105b38261138f565b5b9050919050565b6060600080546105ca90612b11565b80601f01602080910402602001604051908101604052809291908181526020018280546105f690612b11565b80156106435780601f1061061857610100808354040283529160200191610643565b820191906000526020600020905b81548152906001019060200180831161062657829003601f168201915b5050505050905090565b6000610658826113f9565b6004600083815260200190815260200160002060009054906101000a900473ffffffffffffffffffffffffffffffffffffffff169050919050565b600061069e82610cfe565b90508073ffffffffffffffffffffffffffffffffffffffff168373ffffffffffffffffffffffffffffffffffffffff160361070e576040517f08c379a000000000000000000000000000000000000000000000000000000000815260040161070590612bb4565b60405180910390fd5b8073ffffffffffffffffffffffffffffffffffffffff1661072d611444565b73ffffffffffffffffffffffffffffffffffffffff16148061075c575061075b81610756611444565b611278565b5b61079b576040517f08c379a000000000000000000000000000000000000000000000000000000000815260040161079290612c46565b60405180910390fd5b6107a5838361144c565b505050565b6107bb6107b5611444565b82611505565b6107fa576040517f08c379a00000000000000000000000000000000000000000000000000000000081526004016107f190612cd8565b60405180910390fd5b61080583838361159a565b505050565b610812611893565b60004790506000811161085a576040517f08c379a000000000000000000000000000000000000000000000000000000000815260040161085190612d44565b60405180910390fd5b610862610e4f565b73ffffffffffffffffffffffffffffffffffffffff166108fc829081150290604051600060405180830381858888f193505050501580156108a7573d6000803e3d6000fd5b5050565b600060096000838152602001908152602001600020604051806040016040529081600082015481526020016001820160009054906101000a900473ffffffffffffffffffffffffffffffffffffffff1673ffffffffffffffffffffffffffffffffffffffff1673ffffffffffffffffffffffffffffffffffffffff168152505090506000816000015111610974576040517f08c379a000000000000000000000000000000000000000000000000000000000815260040161096b90612dd6565b60405180910390fd5b3373ffffffffffffffffffffffffffffffffffffffff16816020015173ffffffffffffffffffffffffffffffffffffffff16146109e6576040517f08c379a00000000000000000000000000000000000000000000000000000000081526004016109dd90612e42565b60405180910390fd5b3073ffffffffffffffffffffffffffffffffffffffff166323b872dd3033856040518463ffffffff1660e01b8152600401610a2393929190612e62565b600060405180830381600087803b158015610a3d57600080fd5b505af1158015610a51573d6000803e3d6000fd5b50505050610a5e82611911565b7f705332a8918666802fc1504f63ff1f002a5f6cedd30d59ad7ae0b5281aeb8dca8230336000604051610a949493929190612f04565b60405180910390a15050565b610abb8383836040518060200160405280600081525061104c565b505050565b600060096000838152602001908152602001600020604051806040016040529081600082015481526020016001820160009054906101000a900473ffffffffffffffffffffffffffffffffffffffff1673ffffffffffffffffffffffffffffffffffffffff1673ffffffffffffffffffffffffffffffffffffffff168152505090506000816000015111610b89576040517f08c379a0000000000000000000000000000000000000000000000000000000008152600401610b8090612dd6565b60405180910390fd5b80600001513414610bcf576040517f08c379a0000000000000000000000000000000000000000000000000000000008152600401610bc690612fa8565b60405180910390fd5b3073ffffffffffffffffffffffffffffffffffffffff166323b872dd3033856040518463ffffffff1660e01b8152600401610c0c93929190612e62565b600060405180830381600087803b158015610c2657600080fd5b505af1158015610c3a573d6000803e3d6000fd5b50505050610c4782611911565b806020015173ffffffffffffffffffffffffffffffffffffffff166108fc610c906064610c82605f866000015161198690919063ffffffff16565b61199c90919063ffffffff16565b9081150290604051600060405180830381858888f19350505050158015610cbb573d6000803e3d6000fd5b507f705332a8918666802fc1504f63ff1f002a5f6cedd30d59ad7ae0b5281aeb8dca8230336000604051610cf29493929190612f04565b60405180910390a15050565b600080610d0a836119b2565b9050600073ffffffffffffffffffffffffffffffffffffffff168173ffffffffffffffffffffffffffffffffffffffff1603610d7b576040517f08c379a0000000000000000000000000000000000000000000000000000000008152600401610d7290613014565b60405180910390fd5b80915050919050565b60008073ffffffffffffffffffffffffffffffffffffffff168273ffffffffffffffffffffffffffffffffffffffff1603610df4576040517f08c379a0000000000000000000000000000000000000000000000000000000008152600401610deb906130a6565b60405180910390fd5b600360008373ffffffffffffffffffffffffffffffffffffffff1673ffffffffffffffffffffffffffffffffffffffff168152602001908152602001600020549050919050565b610e43611893565b610e4d60006119ef565b565b6000600760009054906101000a900473ffffffffffffffffffffffffffffffffffffffff16905090565b60008111610ebc576040517f08c379a0000000000000000000000000000000000000000000000000000000008152600401610eb390613138565b60405180910390fd5b610ec63083610693565b610ed13330846107aa565b60405180604001604052808281526020013373ffffffffffffffffffffffffffffffffffffffff16815250600960008481526020019081526020016000206000820151816000015560208201518160010160006101000a81548173ffffffffffffffffffffffffffffffffffffffff021916908373ffffffffffffffffffffffffffffffffffffffff1602179055509050507f705332a8918666802fc1504f63ff1f002a5f6cedd30d59ad7ae0b5281aeb8dca82333084604051610f989493929190613158565b60405180910390a15050565b606060018054610fb390612b11565b80601f0160208091040260200160405190810160405280929190818152602001828054610fdf90612b11565b801561102c5780601f106110015761010080835404028352916020019161102c565b820191906000526020600020905b81548152906001019060200180831161100f57829003601f168201915b5050505050905090565b611048611041611444565b8383611ab5565b5050565b61105d611057611444565b83611505565b61109c576040517f08c379a000000000000000000000000000000000000000000000000000000000815260040161109390612cd8565b60405180910390fd5b6110a884848484611c21565b50505050565b60606110b9826113f9565b60006006600084815260200190815260200160002080546110d990612b11565b80601f016020809104026020016040519081016040528092919081815260200182805461110590612b11565b80156111525780601f1061112757610100808354040283529160200191611152565b820191906000526020600020905b81548152906001019060200180831161113557829003601f168201915b505050505090506000611163611c7d565b905060008151036111785781925050506111bb565b6000825111156111ad5780826040516020016111959291906131ec565b604051602081830303815290604052925050506111bb565b6111b684611c94565b925050505b919050565b6111ca6008611cfc565b60006111d66008611d12565b90506111e23382611d20565b6112308184848080601f016020809104026020016040519081016040528093929190818152602001838380828437600081840152601f19601f82011690508083019250505050505050611d3e565b7f705332a8918666802fc1504f63ff1f002a5f6cedd30d59ad7ae0b5281aeb8dca816000338686600060405161126b9695949392919061323d565b60405180910390a1505050565b6000600560008473ffffffffffffffffffffffffffffffffffffffff1673ffffffffffffffffffffffffffffffffffffffff16815260200190815260200160002060008373ffffffffffffffffffffffffffffffffffffffff1673ffffffffffffffffffffffffffffffffffffffff16815260200190815260200160002060009054906101000a900460ff16905092915050565b611314611893565b600073ffffffffffffffffffffffffffffffffffffffff168173ffffffffffffffffffffffffffffffffffffffff1603611383576040517f08c379a000000000000000000000000000000000000000000000000000000000815260040161137a9061330b565b60405180910390fd5b61138c816119ef565b50565b60007f01ffc9a7000000000000000000000000000000000000000000000000000000007bffffffffffffffffffffffffffffffffffffffffffffffffffffffff1916827bffffffffffffffffffffffffffffffffffffffffffffffffffffffff1916149050919050565b61140281611dab565b611441576040517f08c379a000000000000000000000000000000000000000000000000000000000815260040161143890613014565b60405180910390fd5b50565b600033905090565b816004600083815260200190815260200160002060006101000a81548173ffffffffffffffffffffffffffffffffffffffff021916908373ffffffffffffffffffffffffffffffffffffffff160217905550808273ffffffffffffffffffffffffffffffffffffffff166114bf83610cfe565b73ffffffffffffffffffffffffffffffffffffffff167f8c5be1e5ebec7d5bd14f71427d1e84f3dd0314c0f7b2291e5b200ac8c7c3b92560405160405180910390a45050565b60008061151183610cfe565b90508073ffffffffffffffffffffffffffffffffffffffff168473ffffffffffffffffffffffffffffffffffffffff16148061155357506115528185611278565b5b8061159157508373ffffffffffffffffffffffffffffffffffffffff166115798461064d565b73ffffffffffffffffffffffffffffffffffffffff16145b91505092915050565b8273ffffffffffffffffffffffffffffffffffffffff166115ba82610cfe565b73ffffffffffffffffffffffffffffffffffffffff1614611610576040517f08c379a00000000000000000000000000000000000000000000000000000000081526004016116079061339d565b60405180910390fd5b600073ffffffffffffffffffffffffffffffffffffffff168273ffffffffffffffffffffffffffffffffffffffff160361167f576040517f08c379a00000000000000000000000000000000000000000000000000000000081526004016116769061342f565b60405180910390fd5b61168c8383836001611dec565b8273ffffffffffffffffffffffffffffffffffffffff166116ac82610cfe565b73ffffffffffffffffffffffffffffffffffffffff1614611702576040517f08c379a00000000000000000000000000000000000000000000000000000000081526004016116f99061339d565b60405180910390fd5b6004600082815260200190815260200160002060006101000a81549073ffffffffffffffffffffffffffffffffffffffff02191690556001600360008573ffffffffffffffffffffffffffffffffffffffff1673ffffffffffffffffffffffffffffffffffffffff168152602001908152602001600020600082825403925050819055506001600360008473ffffffffffffffffffffffffffffffffffffffff1673ffffffffffffffffffffffffffffffffffffffff16815260200190815260200160002060008282540192505081905550816002600083815260200190815260200160002060006101000a81548173ffffffffffffffffffffffffffffffffffffffff021916908373ffffffffffffffffffffffffffffffffffffffff160217905550808273ffffffffffffffffffffffffffffffffffffffff168473ffffffffffffffffffffffffffffffffffffffff167fddf252ad1be2c89b69c2b068fc378daa952ba7f163c4a11628f55a4df523b3ef60405160405180910390a461188e8383836001611df2565b505050565b61189b611444565b73ffffffffffffffffffffffffffffffffffffffff166118b9610e4f565b73ffffffffffffffffffffffffffffffffffffffff161461190f576040517f08c379a00000000000000000000000000000000000000000000000000000000081526004016119069061349b565b60405180910390fd5b565b6000600960008381526020019081526020016000206000018190555060006009600083815260200190815260200160002060010160006101000a81548173ffffffffffffffffffffffffffffffffffffffff021916908373ffffffffffffffffffffffffffffffffffffffff16021790555050565b6000818361199491906134ea565b905092915050565b600081836119aa919061355b565b905092915050565b60006002600083815260200190815260200160002060009054906101000a900473ffffffffffffffffffffffffffffffffffffffff169050919050565b6000600760009054906101000a900473ffffffffffffffffffffffffffffffffffffffff16905081600760006101000a81548173ffffffffffffffffffffffffffffffffffffffff021916908373ffffffffffffffffffffffffffffffffffffffff1602179055508173ffffffffffffffffffffffffffffffffffffffff168173ffffffffffffffffffffffffffffffffffffffff167f8be0079c531659141344cd1fd0a4f28419497f9722a3daafe3b4186f6b6457e060405160405180910390a35050565b8173ffffffffffffffffffffffffffffffffffffffff168373ffffffffffffffffffffffffffffffffffffffff1603611b23576040517f08c379a0000000000000000000000000000000000000000000000000000000008152600401611b1a906135d8565b60405180910390fd5b80600560008573ffffffffffffffffffffffffffffffffffffffff1673ffffffffffffffffffffffffffffffffffffffff16815260200190815260200160002060008473ffffffffffffffffffffffffffffffffffffffff1673ffffffffffffffffffffffffffffffffffffffff16815260200190815260200160002060006101000a81548160ff0219169083151502179055508173ffffffffffffffffffffffffffffffffffffffff168373ffffffffffffffffffffffffffffffffffffffff167f17307eab39ab6107e8899845ad3d59bd9653f200f220920489ca2b5937696c3183604051611c1491906124ef565b60405180910390a3505050565b611c2c84848461159a565b611c3884848484611df8565b611c77576040517f08c379a0000000000000000000000000000000000000000000000000000000008152600401611c6e9061366a565b60405180910390fd5b50505050565b606060405180602001604052806000815250905090565b6060611c9f826113f9565b6000611ca9611c7d565b90506000815111611cc95760405180602001604052806000815250611cf4565b80611cd384611f7f565b604051602001611ce49291906131ec565b6040516020818303038152906040525b915050919050565b6001816000016000828254019250508190555050565b600081600001549050919050565b611d3a82826040518060200160405280600081525061204d565b5050565b611d4782611dab565b611d86576040517f08c379a0000000000000000000000000000000000000000000000000000000008152600401611d7d906136fc565b60405180910390fd5b80600660008481526020019081526020016000209081611da691906138be565b505050565b60008073ffffffffffffffffffffffffffffffffffffffff16611dcd836119b2565b73ffffffffffffffffffffffffffffffffffffffff1614159050919050565b50505050565b50505050565b6000611e198473ffffffffffffffffffffffffffffffffffffffff166120a8565b15611f72578373ffffffffffffffffffffffffffffffffffffffff1663150b7a02611e42611444565b8786866040518563ffffffff1660e01b8152600401611e6494939291906139e5565b6020604051808303816000875af1925050508015611ea057506040513d601f19601f82011682018060405250810190611e9d9190613a46565b60015b611f22573d8060008114611ed0576040519150601f19603f3d011682016040523d82523d6000602084013e611ed5565b606091505b506000815103611f1a576040517f08c379a0000000000000000000000000000000000000000000000000000000008152600401611f119061366a565b60405180910390fd5b805181602001fd5b63150b7a0260e01b7bffffffffffffffffffffffffffffffffffffffffffffffffffffffff1916817bffffffffffffffffffffffffffffffffffffffffffffffffffffffff191614915050611f77565b600190505b949350505050565b606060006001611f8e846120cb565b01905060008167ffffffffffffffff811115611fad57611fac612847565b5b6040519080825280601f01601f191660200182016040528015611fdf5781602001600182028036833780820191505090505b509050600082602001820190505b600115612042578080600190039150507f3031323334353637383961626364656600000000000000000000000000000000600a86061a8153600a85816120365761203561352c565b5b04945060008503611fed575b819350505050919050565b612057838361221e565b6120646000848484611df8565b6120a3576040517f08c379a000000000000000000000000000000000000000000000000000000000815260040161209a9061366a565b60405180910390fd5b505050565b6000808273ffffffffffffffffffffffffffffffffffffffff163b119050919050565b600080600090507a184f03e93ff9f4daa797ed6e38ed64bf6a1f0100000000000000008310612129577a184f03e93ff9f4daa797ed6e38ed64bf6a1f010000000000000000838161211f5761211e61352c565b5b0492506040810190505b6d04ee2d6d415b85acef81000000008310612166576d04ee2d6d415b85acef8100000000838161215c5761215b61352c565b5b0492506020810190505b662386f26fc10000831061219557662386f26fc10000838161218b5761218a61352c565b5b0492506010810190505b6305f5e10083106121be576305f5e10083816121b4576121b361352c565b5b0492506008810190505b61271083106121e35761271083816121d9576121d861352c565b5b0492506004810190505b6064831061220657606483816121fc576121fb61352c565b5b0492506002810190505b600a8310612215576001810190505b80915050919050565b600073ffffffffffffffffffffffffffffffffffffffff168273ffffffffffffffffffffffffffffffffffffffff160361228d576040517f08c379a000000000000000000000000000000000000000000000000000000000815260040161228490613abf565b60405180910390fd5b61229681611dab565b156122d6576040517f08c379a00000000000000000000000000000000000000000000000000000000081526004016122cd90613b2b565b60405180910390fd5b6122e4600083836001611dec565b6122ed81611dab565b1561232d576040517f08c379a000000000000000000000000000000000000000000000000000000000815260040161232490613b2b565b60405180910390fd5b6001600360008473ffffffffffffffffffffffffffffffffffffffff1673ffffffffffffffffffffffffffffffffffffffff16815260200190815260200160002060008282540192505081905550816002600083815260200190815260200160002060006101000a81548173ffffffffffffffffffffffffffffffffffffffff021916908373ffffffffffffffffffffffffffffffffffffffff160217905550808273ffffffffffffffffffffffffffffffffffffffff16600073ffffffffffffffffffffffffffffffffffffffff167fddf252ad1be2c89b69c2b068fc378daa952ba7f163c4a11628f55a4df523b3ef60405160405180910390a4612437600083836001611df2565b5050565b6000604051905090565b600080fd5b600080fd5b60007fffffffff0000000000000000000000000000000000000000000000000000000082169050919050565b6124848161244f565b811461248f57600080fd5b50565b6000813590506124a18161247b565b92915050565b6000602082840312156124bd576124bc612445565b5b60006124cb84828501612492565b91505092915050565b60008115159050919050565b6124e9816124d4565b82525050565b600060208201905061250460008301846124e0565b92915050565b600081519050919050565b600082825260208201905092915050565b60005b83811015612544578082015181840152602081019050612529565b60008484015250505050565b6000601f19601f8301169050919050565b600061256c8261250a565b6125768185612515565b9350612586818560208601612526565b61258f81612550565b840191505092915050565b600060208201905081810360008301526125b48184612561565b905092915050565b6000819050919050565b6125cf816125bc565b81146125da57600080fd5b50565b6000813590506125ec816125c6565b92915050565b60006020828403121561260857612607612445565b5b6000612616848285016125dd565b91505092915050565b600073ffffffffffffffffffffffffffffffffffffffff82169050919050565b600061264a8261261f565b9050919050565b61265a8161263f565b82525050565b60006020820190506126756000830184612651565b92915050565b6126848161263f565b811461268f57600080fd5b50565b6000813590506126a18161267b565b92915050565b600080604083850312156126be576126bd612445565b5b60006126cc85828601612692565b92505060206126dd858286016125dd565b9150509250929050565b600080600060608486031215612700576126ff612445565b5b600061270e86828701612692565b935050602061271f86828701612692565b9250506040612730868287016125dd565b9150509250925092565b6000602082840312156127505761274f612445565b5b600061275e84828501612692565b91505092915050565b612770816125bc565b82525050565b600060208201905061278b6000830184612767565b92915050565b600080604083850312156127a8576127a7612445565b5b60006127b6858286016125dd565b92505060206127c7858286016125dd565b9150509250929050565b6127da816124d4565b81146127e557600080fd5b50565b6000813590506127f7816127d1565b92915050565b6000806040838503121561281457612813612445565b5b600061282285828601612692565b9250506020612833858286016127e8565b9150509250929050565b600080fd5b600080fd5b7f4e487b7100000000000000000000000000000000000000000000000000000000600052604160045260246000fd5b61287f82612550565b810181811067ffffffffffffffff8211171561289e5761289d612847565b5b80604052505050565b60006128b161243b565b90506128bd8282612876565b919050565b600067ffffffffffffffff8211156128dd576128dc612847565b5b6128e682612550565b9050602081019050919050565b82818337600083830152505050565b6000612915612910846128c2565b6128a7565b90508281526020810184848401111561293157612930612842565b5b61293c8482856128f3565b509392505050565b600082601f8301126129595761295861283d565b5b8135612969848260208601612902565b91505092915050565b6000806000806080858703121561298c5761298b612445565b5b600061299a87828801612692565b94505060206129ab87828801612692565b93505060406129bc878288016125dd565b925050606085013567ffffffffffffffff8111156129dd576129dc61244a565b5b6129e987828801612944565b91505092959194509250565b600080fd5b600080fd5b60008083601f840112612a1557612a1461283d565b5b8235905067ffffffffffffffff811115612a3257612a316129f5565b5b602083019150836001820283011115612a4e57612a4d6129fa565b5b9250929050565b60008060208385031215612a6c57612a6b612445565b5b600083013567ffffffffffffffff811115612a8a57612a8961244a565b5b612a96858286016129ff565b92509250509250929050565b60008060408385031215612ab957612ab8612445565b5b6000612ac785828601612692565b9250506020612ad885828601612692565b9150509250929050565b7f4e487b7100000000000000000000000000000000000000000000000000000000600052602260045260246000fd5b60006002820490506001821680612b2957607f821691505b602082108103612b3c57612b3b612ae2565b5b50919050565b7f4552433732313a20617070726f76616c20746f2063757272656e74206f776e6560008201527f7200000000000000000000000000000000000000000000000000000000000000602082015250565b6000612b9e602183612515565b9150612ba982612b42565b604082019050919050565b60006020820190508181036000830152612bcd81612b91565b9050919050565b7f4552433732313a20617070726f76652063616c6c6572206973206e6f7420746f60008201527f6b656e206f776e6572206f7220617070726f76656420666f7220616c6c000000602082015250565b6000612c30603d83612515565b9150612c3b82612bd4565b604082019050919050565b60006020820190508181036000830152612c5f81612c23565b9050919050565b7f4552433732313a2063616c6c6572206973206e6f7420746f6b656e206f776e6560008201527f72206f7220617070726f76656400000000000000000000000000000000000000602082015250565b6000612cc2602d83612515565b9150612ccd82612c66565b604082019050919050565b60006020820190508181036000830152612cf181612cb5565b9050919050565b7f4e46544d61726b65743a2062616c616e6365206973207a65726f000000000000600082015250565b6000612d2e601a83612515565b9150612d3982612cf8565b602082019050919050565b60006020820190508181036000830152612d5d81612d21565b9050919050565b7f4e46544d61726b65743a206e6674206e6f74206c697374656420666f7220736160008201527f6c65000000000000000000000000000000000000000000000000000000000000602082015250565b6000612dc0602283612515565b9150612dcb82612d64565b604082019050919050565b60006020820190508181036000830152612def81612db3565b9050919050565b7f4e46544d61726b65743a20796f7520617265206e6f7420746865206f776e6572600082015250565b6000612e2c602083612515565b9150612e3782612df6565b602082019050919050565b60006020820190508181036000830152612e5b81612e1f565b9050919050565b6000606082019050612e776000830186612651565b612e846020830185612651565b612e916040830184612767565b949350505050565b50565b6000612ea9600083612515565b9150612eb482612e99565b600082019050919050565b6000819050919050565b6000819050919050565b6000612eee612ee9612ee484612ebf565b612ec9565b6125bc565b9050919050565b612efe81612ed3565b82525050565b600060a082019050612f196000830187612767565b612f266020830186612651565b612f336040830185612651565b8181036060830152612f4481612e9c565b9050612f536080830184612ef5565b95945050505050565b7f4e46544d61726b65743a20696e636f7272656374207072696365000000000000600082015250565b6000612f92601a83612515565b9150612f9d82612f5c565b602082019050919050565b60006020820190508181036000830152612fc181612f85565b9050919050565b7f4552433732313a20696e76616c696420746f6b656e2049440000000000000000600082015250565b6000612ffe601883612515565b915061300982612fc8565b602082019050919050565b6000602082019050818103600083015261302d81612ff1565b9050919050565b7f4552433732313a2061646472657373207a65726f206973206e6f74206120766160008201527f6c6964206f776e65720000000000000000000000000000000000000000000000602082015250565b6000613090602983612515565b915061309b82613034565b604082019050919050565b600060208201905081810360008301526130bf81613083565b9050919050565b7f4e46544d61726b65743a207072696365206d757374206265206772656174657260008201527f207468616e203000000000000000000000000000000000000000000000000000602082015250565b6000613122602783612515565b915061312d826130c6565b604082019050919050565b6000602082019050818103600083015261315181613115565b9050919050565b600060a08201905061316d6000830187612767565b61317a6020830186612651565b6131876040830185612651565b818103606083015261319881612e9c565b90506131a76080830184612767565b95945050505050565b600081905092915050565b60006131c68261250a565b6131d081856131b0565b93506131e0818560208601612526565b80840191505092915050565b60006131f882856131bb565b915061320482846131bb565b91508190509392505050565b600061321c8385612515565b93506132298385846128f3565b61323283612550565b840190509392505050565b600060a0820190506132526000830189612767565b61325f6020830188612651565b61326c6040830187612651565b818103606083015261327f818587613210565b905061328e6080830184612ef5565b979650505050505050565b7f4f776e61626c653a206e6577206f776e657220697320746865207a65726f206160008201527f6464726573730000000000000000000000000000000000000000000000000000602082015250565b60006132f5602683612515565b915061330082613299565b604082019050919050565b60006020820190508181036000830152613324816132e8565b9050919050565b7f4552433732313a207472616e736665722066726f6d20696e636f72726563742060008201527f6f776e6572000000000000000000000000000000000000000000000000000000602082015250565b6000613387602583612515565b91506133928261332b565b604082019050919050565b600060208201905081810360008301526133b68161337a565b9050919050565b7f4552433732313a207472616e7366657220746f20746865207a65726f2061646460008201527f7265737300000000000000000000000000000000000000000000000000000000602082015250565b6000613419602483612515565b9150613424826133bd565b604082019050919050565b600060208201905081810360008301526134488161340c565b9050919050565b7f4f776e61626c653a2063616c6c6572206973206e6f7420746865206f776e6572600082015250565b6000613485602083612515565b91506134908261344f565b602082019050919050565b600060208201905081810360008301526134b481613478565b9050919050565b7f4e487b7100000000000000000000000000000000000000000000000000000000600052601160045260246000fd5b60006134f5826125bc565b9150613500836125bc565b925082820261350e816125bc565b91508282048414831517613525576135246134bb565b5b5092915050565b7f4e487b7100000000000000000000000000000000000000000000000000000000600052601260045260246000fd5b6000613566826125bc565b9150613571836125bc565b9250826135815761358061352c565b5b828204905092915050565b7f4552433732313a20617070726f766520746f2063616c6c657200000000000000600082015250565b60006135c2601983612515565b91506135cd8261358c565b602082019050919050565b600060208201905081810360008301526135f1816135b5565b9050919050565b7f4552433732313a207472616e7366657220746f206e6f6e20455243373231526560008201527f63656976657220696d706c656d656e7465720000000000000000000000000000602082015250565b6000613654603283612515565b915061365f826135f8565b604082019050919050565b6000602082019050818103600083015261368381613647565b9050919050565b7f45524337323155524953746f726167653a2055524920736574206f66206e6f6e60008201527f6578697374656e7420746f6b656e000000000000000000000000000000000000602082015250565b60006136e6602e83612515565b91506136f18261368a565b604082019050919050565b60006020820190508181036000830152613715816136d9565b9050919050565b60008190508160005260206000209050919050565b60006020601f8301049050919050565b600082821b905092915050565b60006008830261377e7fffffffffffffffffffffffffffffffffffffffffffffffffffffffffffffffff82613741565b6137888683613741565b95508019841693508086168417925050509392505050565b60006137bb6137b66137b1846125bc565b612ec9565b6125bc565b9050919050565b6000819050919050565b6137d5836137a0565b6137e96137e1826137c2565b84845461374e565b825550505050565b600090565b6137fe6137f1565b6138098184846137cc565b505050565b5b8181101561382d576138226000826137f6565b60018101905061380f565b5050565b601f821115613872576138438161371c565b61384c84613731565b8101602085101561385b578190505b61386f61386785613731565b83018261380e565b50505b505050565b600082821c905092915050565b600061389560001984600802613877565b1980831691505092915050565b60006138ae8383613884565b9150826002028217905092915050565b6138c78261250a565b67ffffffffffffffff8111156138e0576138df612847565b5b6138ea8254612b11565b6138f5828285613831565b600060209050601f8311600181146139285760008415613916578287015190505b61392085826138a2565b865550613988565b601f1984166139368661371c565b60005b8281101561395e57848901518255600182019150602085019450602081019050613939565b8683101561397b5784890151613977601f891682613884565b8355505b6001600288020188555050505b505050505050565b600081519050919050565b600082825260208201905092915050565b60006139b782613990565b6139c1818561399b565b93506139d1818560208601612526565b6139da81612550565b840191505092915050565b60006080820190506139fa6000830187612651565b613a076020830186612651565b613a146040830185612767565b8181036060830152613a2681846139ac565b905095945050505050565b600081519050613a408161247b565b92915050565b600060208284031215613a5c57613a5b612445565b5b6000613a6a84828501613a31565b91505092915050565b7f4552433732313a206d696e7420746f20746865207a65726f2061646472657373600082015250565b6000613aa9602083612515565b9150613ab482613a73565b602082019050919050565b60006020820190508181036000830152613ad881613a9c565b9050919050565b7f4552433732313a20746f6b656e20616c7265616479206d696e74656400000000600082015250565b6000613b15601c83612515565b9150613b2082613adf565b602082019050919050565b60006020820190508181036000830152613b4481613b08565b905091905056fea26469706673582212204a52cb7ac2f511fb5ff2ef16e1f2c26db31f67583b75c4cac80e7220834de5c064736f6c63430008120033",
  "linkReferences": {},
  "deployedLinkReferences": {}
}